{
    "_format": "hh-sol-artifact-1",
    "contractName": "Vendor",
    "sourceName": "contracts/Vendor.sol",
    "abi": [
        {
            "inputs": [
                {
                    "internalType": "address",
                    "name": "_myTokenAddress",
                    "type": "address"
                }
            ],
            "stateMutability": "nonpayable",
            "type": "constructor"
        },
        {
            "anonymous": false,
            "inputs": [
                {
                    "indexed": false,
                    "internalType": "address",
                    "name": "buyer",
                    "type": "address"
                },
                {
                    "indexed": false,
                    "internalType": "uint256",
                    "name": "amountOfEth",
                    "type": "uint256"
                },
                {
                    "indexed": false,
                    "internalType": "uint256",
                    "name": "tokenAmount",
                    "type": "uint256"
                }
            ],
            "name": "BuyTokens",
            "type": "event"
        },
        {
            "anonymous": false,
            "inputs": [
                {
                    "indexed": true,
                    "internalType": "address",
                    "name": "previousOwner",
                    "type": "address"
                },
                {
                    "indexed": true,
                    "internalType": "address",
                    "name": "newOwner",
                    "type": "address"
                }
            ],
            "name": "OwnershipTransferred",
            "type": "event"
        },
        {
            "anonymous": false,
            "inputs": [
                {
                    "indexed": false,
                    "internalType": "address",
                    "name": "seller",
                    "type": "address"
                },
                {
                    "indexed": false,
                    "internalType": "uint256",
                    "name": "amountOfEth",
                    "type": "uint256"
                },
                {
                    "indexed": false,
                    "internalType": "uint256",
                    "name": "tokenAmount",
                    "type": "uint256"
                }
            ],
            "name": "SellTokens",
            "type": "event"
        },
        {
            "inputs": [],
            "name": "buyTokens",
            "outputs": [
                {
                    "internalType": "uint256",
                    "name": "",
                    "type": "uint256"
                }
            ],
            "stateMutability": "payable",
            "type": "function"
        },
        {
            "inputs": [],
            "name": "getContractBalance",
            "outputs": [
                {
                    "internalType": "uint256",
                    "name": "",
                    "type": "uint256"
                }
            ],
            "stateMutability": "view",
            "type": "function"
        },
        {
            "inputs": [],
            "name": "owner",
            "outputs": [
                {
                    "internalType": "address",
                    "name": "",
                    "type": "address"
                }
            ],
            "stateMutability": "view",
            "type": "function"
        },
        {
            "inputs": [],
            "name": "renounceOwnership",
            "outputs": [],
            "stateMutability": "nonpayable",
            "type": "function"
        },
        {
            "inputs": [
                {
                    "internalType": "uint256",
                    "name": "tokenAmountToSell",
                    "type": "uint256"
                }
            ],
            "name": "sellTokens",
            "outputs": [],
            "stateMutability": "nonpayable",
            "type": "function"
        },
        {
            "inputs": [],
            "name": "tokensPerEth",
            "outputs": [
                {
                    "internalType": "uint256",
                    "name": "",
                    "type": "uint256"
                }
            ],
            "stateMutability": "view",
            "type": "function"
        },
        {
            "inputs": [
                {
                    "internalType": "address",
                    "name": "newOwner",
                    "type": "address"
                }
            ],
            "name": "transferOwnership",
            "outputs": [],
            "stateMutability": "nonpayable",
            "type": "function"
        },
        {
            "inputs": [],
            "name": "withdraw",
            "outputs": [],
            "stateMutability": "payable",
            "type": "function"
        }
    ],
    "bytecode": "0x60806040523480156200001157600080fd5b50604051620017cc380380620017cc833981810160405281019062000037919062000182565b620000576200004b6200009f60201b60201c565b620000a760201b60201c565b80600160006101000a81548173ffffffffffffffffffffffffffffffffffffffff021916908373ffffffffffffffffffffffffffffffffffffffff16021790555050620001fc565b600033905090565b60008060009054906101000a900473ffffffffffffffffffffffffffffffffffffffff169050816000806101000a81548173ffffffffffffffffffffffffffffffffffffffff021916908373ffffffffffffffffffffffffffffffffffffffff1602179055508173ffffffffffffffffffffffffffffffffffffffff168173ffffffffffffffffffffffffffffffffffffffff167f8be0079c531659141344cd1fd0a4f28419497f9722a3daafe3b4186f6b6457e060405160405180910390a35050565b6000815190506200017c81620001e2565b92915050565b6000602082840312156200019557600080fd5b6000620001a5848285016200016b565b91505092915050565b6000620001bb82620001c2565b9050919050565b600073ffffffffffffffffffffffffffffffffffffffff82169050919050565b620001ed81620001ae565b8114620001f957600080fd5b50565b6115c0806200020c6000396000f3fe60806040526004361061007b5760003560e01c80638da5cb5b1161004e5780638da5cb5b146100f5578063cbdd69b514610120578063d0febe4c1461014b578063f2fde38b146101695761007b565b80633ccfd60b146100805780636c11bcd31461008a5780636f9fb98a146100b3578063715018a6146100de575b600080fd5b610088610192565b005b34801561009657600080fd5b506100b160048036038101906100ac9190610c1a565b610306565b005b3480156100bf57600080fd5b506100c8610672565b6040516100d59190611098565b60405180910390f35b3480156100ea57600080fd5b506100f361067a565b005b34801561010157600080fd5b5061010a610702565b6040516101179190610e66565b60405180910390f35b34801561012c57600080fd5b5061013561072b565b6040516101429190611098565b60405180910390f35b610153610731565b6040516101609190611098565b60405180910390f35b34801561017557600080fd5b50610190600480360381019061018b9190610bc8565b6109b0565b005b61019a610aa8565b73ffffffffffffffffffffffffffffffffffffffff166101b8610702565b73ffffffffffffffffffffffffffffffffffffffff161461020e576040517f08c379a000000000000000000000000000000000000000000000000000000000815260040161020590610ff8565b60405180910390fd5b600047905060008111610256576040517f08c379a000000000000000000000000000000000000000000000000000000000815260040161024d90610fb8565b60405180910390fd5b60003373ffffffffffffffffffffffffffffffffffffffff164760405161027c90610e51565b60006040518083038185875af1925050503d80600081146102b9576040519150601f19603f3d011682016040523d82523d6000602084013e6102be565b606091505b5050905080610302576040517f08c379a00000000000000000000000000000000000000000000000000000000081526004016102f990611018565b60405180910390fd5b5050565b60008111610349576040517f08c379a000000000000000000000000000000000000000000000000000000000815260040161034090611058565b60405180910390fd5b80600160009054906101000a900473ffffffffffffffffffffffffffffffffffffffff1673ffffffffffffffffffffffffffffffffffffffff166370a08231336040518263ffffffff1660e01b81526004016103a59190610e66565b60206040518083038186803b1580156103bd57600080fd5b505afa1580156103d1573d6000803e3d6000fd5b505050506040513d601f19601f820116820180604052508101906103f59190610c43565b1015610436576040517f08c379a000000000000000000000000000000000000000000000000000000000815260040161042d90610f38565b60405180910390fd5b600047905060006127108361044b91906110cf565b905080821015610490576040517f08c379a000000000000000000000000000000000000000000000000000000000815260040161048790610f58565b60405180910390fd5b6000600160009054906101000a900473ffffffffffffffffffffffffffffffffffffffff1673ffffffffffffffffffffffffffffffffffffffff166323b872dd3330876040518463ffffffff1660e01b81526004016104f193929190610e81565b602060405180830381600087803b15801561050b57600080fd5b505af115801561051f573d6000803e3d6000fd5b505050506040513d601f19601f820116820180604052508101906105439190610bf1565b905080610585576040517f08c379a000000000000000000000000000000000000000000000000000000000815260040161057c90610f98565b60405180910390fd5b3373ffffffffffffffffffffffffffffffffffffffff16826040516105a990610e51565b60006040518083038185875af1925050503d80600081146105e6576040519150601f19603f3d011682016040523d82523d6000602084013e6105eb565b606091505b50508091505080610631576040517f08c379a000000000000000000000000000000000000000000000000000000000815260040161062890610f78565b60405180910390fd5b7fa24838acd4af5195a2396965dae5abf54e84e8c19f5698bb966ae64e29994ee533838660405161066493929190610ee1565b60405180910390a150505050565b600047905090565b610682610aa8565b73ffffffffffffffffffffffffffffffffffffffff166106a0610702565b73ffffffffffffffffffffffffffffffffffffffff16146106f6576040517f08c379a00000000000000000000000000000000000000000000000000000000081526004016106ed90610ff8565b60405180910390fd5b6107006000610ab0565b565b60008060009054906101000a900473ffffffffffffffffffffffffffffffffffffffff16905090565b61271081565b6000803411610775576040517f08c379a000000000000000000000000000000000000000000000000000000000815260040161076c90611038565b60405180910390fd5b6000612710346107859190611100565b90506000600160009054906101000a900473ffffffffffffffffffffffffffffffffffffffff1673ffffffffffffffffffffffffffffffffffffffff166370a08231306040518263ffffffff1660e01b81526004016107e49190610e66565b60206040518083038186803b1580156107fc57600080fd5b505afa158015610810573d6000803e3d6000fd5b505050506040513d601f19601f820116820180604052508101906108349190610c43565b905081811015610879576040517f08c379a000000000000000000000000000000000000000000000000000000000815260040161087090610fd8565b60405180910390fd5b6000600160009054906101000a900473ffffffffffffffffffffffffffffffffffffffff1673ffffffffffffffffffffffffffffffffffffffff1663a9059cbb33856040518363ffffffff1660e01b81526004016108d8929190610eb8565b602060405180830381600087803b1580156108f257600080fd5b505af1158015610906573d6000803e3d6000fd5b505050506040513d601f19601f8201168201806040525081019061092a9190610bf1565b90508061096c576040517f08c379a000000000000000000000000000000000000000000000000000000000815260040161096390611078565b60405180910390fd5b7f0a37b72bb67eee30e09084cf386f8a17817c57f620c3ab95fb25d6a20356ec7733348560405161099f93929190610ee1565b60405180910390a182935050505090565b6109b8610aa8565b73ffffffffffffffffffffffffffffffffffffffff166109d6610702565b73ffffffffffffffffffffffffffffffffffffffff1614610a2c576040517f08c379a0000000000000000000000000000000000000000000000000000000008152600401610a2390610ff8565b60405180910390fd5b600073ffffffffffffffffffffffffffffffffffffffff168173ffffffffffffffffffffffffffffffffffffffff161415610a9c576040517f08c379a0000000000000000000000000000000000000000000000000000000008152600401610a9390610f18565b60405180910390fd5b610aa581610ab0565b50565b600033905090565b60008060009054906101000a900473ffffffffffffffffffffffffffffffffffffffff169050816000806101000a81548173ffffffffffffffffffffffffffffffffffffffff021916908373ffffffffffffffffffffffffffffffffffffffff1602179055508173ffffffffffffffffffffffffffffffffffffffff168173ffffffffffffffffffffffffffffffffffffffff167f8be0079c531659141344cd1fd0a4f28419497f9722a3daafe3b4186f6b6457e060405160405180910390a35050565b600081359050610b8381611545565b92915050565b600081519050610b988161155c565b92915050565b600081359050610bad81611573565b92915050565b600081519050610bc281611573565b92915050565b600060208284031215610bda57600080fd5b6000610be884828501610b74565b91505092915050565b600060208284031215610c0357600080fd5b6000610c1184828501610b89565b91505092915050565b600060208284031215610c2c57600080fd5b6000610c3a84828501610b9e565b91505092915050565b600060208284031215610c5557600080fd5b6000610c6384828501610bb3565b91505092915050565b610c758161115a565b82525050565b6000610c886026836110be565b9150610c9382611200565b604082019050919050565b6000610cab6040836110be565b9150610cb68261124f565b604082019050919050565b6000610cce6037836110be565b9150610cd98261129e565b604082019050919050565b6000610cf16035836110be565b9150610cfc826112ed565b604082019050919050565b6000610d14602d836110be565b9150610d1f8261133c565b604082019050919050565b6000610d376019836110be565b9150610d428261138b565b602082019050919050565b6000610d5a603e836110be565b9150610d65826113b4565b604082019050919050565b6000610d7d6020836110be565b9150610d8882611403565b602082019050919050565b6000610da0602d836110be565b9150610dab8261142c565b604082019050919050565b6000610dc36000836110b3565b9150610dce8261147b565b600082019050919050565b6000610de66022836110be565b9150610df18261147e565b604082019050919050565b6000610e096026836110be565b9150610e14826114cd565b604082019050919050565b6000610e2c6020836110be565b9150610e378261151c565b602082019050919050565b610e4b81611198565b82525050565b6000610e5c82610db6565b9150819050919050565b6000602082019050610e7b6000830184610c6c565b92915050565b6000606082019050610e966000830186610c6c565b610ea36020830185610c6c565b610eb06040830184610e42565b949350505050565b6000604082019050610ecd6000830185610c6c565b610eda6020830184610e42565b9392505050565b6000606082019050610ef66000830186610c6c565b610f036020830185610e42565b610f106040830184610e42565b949350505050565b60006020820190508181036000830152610f3181610c7b565b9050919050565b60006020820190508181036000830152610f5181610c9e565b9050919050565b60006020820190508181036000830152610f7181610cc1565b9050919050565b60006020820190508181036000830152610f9181610ce4565b9050919050565b60006020820190508181036000830152610fb181610d07565b9050919050565b60006020820190508181036000830152610fd181610d2a565b9050919050565b60006020820190508181036000830152610ff181610d4d565b9050919050565b6000602082019050818103600083015261101181610d70565b9050919050565b6000602082019050818103600083015261103181610d93565b9050919050565b6000602082019050818103600083015261105181610dd9565b9050919050565b6000602082019050818103600083015261107181610dfc565b9050919050565b6000602082019050818103600083015261109181610e1f565b9050919050565b60006020820190506110ad6000830184610e42565b92915050565b600081905092915050565b600082825260208201905092915050565b60006110da82611198565b91506110e583611198565b9250826110f5576110f46111d1565b5b828204905092915050565b600061110b82611198565b915061111683611198565b9250817fffffffffffffffffffffffffffffffffffffffffffffffffffffffffffffffff048311821515161561114f5761114e6111a2565b5b828202905092915050565b600061116582611178565b9050919050565b60008115159050919050565b600073ffffffffffffffffffffffffffffffffffffffff82169050919050565b6000819050919050565b7f4e487b7100000000000000000000000000000000000000000000000000000000600052601160045260246000fd5b7f4e487b7100000000000000000000000000000000000000000000000000000000600052601260045260246000fd5b7f4f776e61626c653a206e6577206f776e657220697320746865207a65726f206160008201527f6464726573730000000000000000000000000000000000000000000000000000602082015250565b7f596f75722062616c616e6365206973206c6f776572207468616e20746865206160008201527f6d6f756e74206f6620746f6b656e7320796f752077616e7420746f2073656c6c602082015250565b7f5468652076656e646f7220646f65736e2774206861766520656e6f756768206660008201527f756e647320746f2062757920796f757220746f6b656e73000000000000000000602082015250565b7f4661696c656420746f2073656e642045544820746f207468652075736572206960008201527f6e2065786368616e676520666f7220746f6b656e730000000000000000000000602082015250565b7f4661696c656420746f207472616e7366657220746f6b656e732066726f6d207560008201527f73657220746f2076656e646f7200000000000000000000000000000000000000602082015250565b7f4e6f206574686572206c65667420746f20776974686472617700000000000000600082015250565b7f5468652076656e646f7220636f6e747261637420646f65736e2774206861766560008201527f20656e6f75676820746f6b656e7320696e206974732062616c616e63652e0000602082015250565b7f4f776e61626c653a2063616c6c6572206973206e6f7420746865206f776e6572600082015250565b7f4661696c656420746f2073656e6420757365722062616c616e6365206261636b60008201527f20746f20746865206f776e657200000000000000000000000000000000000000602082015250565b50565b7f506c656173652073656e6420736f6d652045544820746f2062757920746f6b6560008201527f6e73000000000000000000000000000000000000000000000000000000000000602082015250565b7f506c65617365207370656369667920616e20616d6f756e74206f6620746f6b6560008201527f6e73203e20300000000000000000000000000000000000000000000000000000602082015250565b7f4661696c656420746f207472616e7366657220746f6b656e20746f2075736572600082015250565b61154e8161115a565b811461155957600080fd5b50565b6115658161116c565b811461157057600080fd5b50565b61157c81611198565b811461158757600080fd5b5056fea264697066735822122042f713322299c8e944ce2131fa28d38569b80eb3401f3700b554a2ed89e1778564736f6c63430008040033",
    "linkReferences": {},
    "deployedLinkReferences": {}
}