{
  "_format": "hh-sol-artifact-1",
  "contractName": "Vendor",
  "sourceName": "contracts/Vendor.sol",
  "abi": [
    {
      "inputs": [
        {
          "internalType": "address",
          "name": "_myTokenAddress",
          "type": "address"
        }
      ],
      "stateMutability": "nonpayable",
      "type": "constructor"
    },
    {
      "anonymous": false,
      "inputs": [
        {
          "indexed": false,
          "internalType": "address",
          "name": "buyer",
          "type": "address"
        },
        {
          "indexed": false,
          "internalType": "uint256",
          "name": "cost",
          "type": "uint256"
        },
        {
          "indexed": false,
          "internalType": "uint256",
          "name": "tokenAmount",
          "type": "uint256"
        }
      ],
      "name": "BuyTokens",
      "type": "event"
    },
    {
      "anonymous": false,
      "inputs": [
        {
          "indexed": true,
          "internalType": "address",
          "name": "previousOwner",
          "type": "address"
        },
        {
          "indexed": true,
          "internalType": "address",
          "name": "newOwner",
          "type": "address"
        }
      ],
      "name": "OwnershipTransferred",
      "type": "event"
    },
    {
      "anonymous": false,
      "inputs": [
        {
          "indexed": false,
          "internalType": "address",
          "name": "seller",
          "type": "address"
        },
        {
          "indexed": false,
          "internalType": "uint256",
          "name": "ethRecievedInExchange",
          "type": "uint256"
        },
        {
          "indexed": false,
          "internalType": "uint256",
          "name": "tokenAmount",
          "type": "uint256"
        }
      ],
      "name": "SellTokens",
      "type": "event"
    },
    {
      "inputs": [],
      "name": "buyTokens",
      "outputs": [
        {
          "internalType": "uint256",
          "name": "",
          "type": "uint256"
        }
      ],
      "stateMutability": "payable",
      "type": "function"
    },
    {
      "inputs": [],
      "name": "getContractBalance",
      "outputs": [
        {
          "internalType": "uint256",
          "name": "",
          "type": "uint256"
        }
      ],
      "stateMutability": "view",
      "type": "function"
    },
    {
      "inputs": [],
      "name": "owner",
      "outputs": [
        {
          "internalType": "address",
          "name": "",
          "type": "address"
        }
      ],
      "stateMutability": "view",
      "type": "function"
    },
    {
      "inputs": [],
      "name": "renounceOwnership",
      "outputs": [],
      "stateMutability": "nonpayable",
      "type": "function"
    },
    {
      "inputs": [
        {
          "internalType": "uint256",
          "name": "tokenAmountToSell",
          "type": "uint256"
        }
      ],
      "name": "sellTokens",
      "outputs": [],
      "stateMutability": "nonpayable",
      "type": "function"
    },
    {
      "inputs": [],
      "name": "tokensPerEth",
      "outputs": [
        {
          "internalType": "uint256",
          "name": "",
          "type": "uint256"
        }
      ],
      "stateMutability": "view",
      "type": "function"
    },
    {
      "inputs": [
        {
          "internalType": "address",
          "name": "newOwner",
          "type": "address"
        }
      ],
      "name": "transferOwnership",
      "outputs": [],
      "stateMutability": "nonpayable",
      "type": "function"
    },
    {
      "inputs": [],
      "name": "withdraw",
      "outputs": [],
      "stateMutability": "payable",
      "type": "function"
    }
  ],
  "bytecode": "0x60806040523480156200001157600080fd5b50604051620019f8380380620019f8833981810160405281019062000037919062000182565b620000576200004b6200009f60201b60201c565b620000a760201b60201c565b80600160006101000a81548173ffffffffffffffffffffffffffffffffffffffff021916908373ffffffffffffffffffffffffffffffffffffffff16021790555050620001fc565b600033905090565b60008060009054906101000a900473ffffffffffffffffffffffffffffffffffffffff169050816000806101000a81548173ffffffffffffffffffffffffffffffffffffffff021916908373ffffffffffffffffffffffffffffffffffffffff1602179055508173ffffffffffffffffffffffffffffffffffffffff168173ffffffffffffffffffffffffffffffffffffffff167f8be0079c531659141344cd1fd0a4f28419497f9722a3daafe3b4186f6b6457e060405160405180910390a35050565b6000815190506200017c81620001e2565b92915050565b6000602082840312156200019557600080fd5b6000620001a5848285016200016b565b91505092915050565b6000620001bb82620001c2565b9050919050565b600073ffffffffffffffffffffffffffffffffffffffff82169050919050565b620001ed81620001ae565b8114620001f957600080fd5b50565b6117ec806200020c6000396000f3fe60806040526004361061007b5760003560e01c80638da5cb5b1161004e5780638da5cb5b146100f5578063cbdd69b514610120578063d0febe4c1461014b578063f2fde38b146101695761007b565b80633ccfd60b146100805780636c11bcd31461008a5780636f9fb98a146100b3578063715018a6146100de575b600080fd5b610088610192565b005b34801561009657600080fd5b506100b160048036038101906100ac9190610d23565b610306565b005b3480156100bf57600080fd5b506100c8610694565b6040516100d5919061120a565b60405180910390f35b3480156100ea57600080fd5b506100f361069c565b005b34801561010157600080fd5b5061010a610724565b6040516101179190610fa8565b60405180910390f35b34801561012c57600080fd5b5061013561074d565b604051610142919061120a565b60405180910390f35b610153610753565b604051610160919061120a565b60405180910390f35b34801561017557600080fd5b50610190600480360381019061018b9190610cd1565b6109f4565b005b61019a610aec565b73ffffffffffffffffffffffffffffffffffffffff166101b8610724565b73ffffffffffffffffffffffffffffffffffffffff161461020e576040517f08c379a00000000000000000000000000000000000000000000000000000000081526004016102059061116a565b60405180910390fd5b600047905060008111610256576040517f08c379a000000000000000000000000000000000000000000000000000000000815260040161024d9061112a565b60405180910390fd5b60003373ffffffffffffffffffffffffffffffffffffffff164760405161027c90610f93565b60006040518083038185875af1925050503d80600081146102b9576040519150601f19603f3d011682016040523d82523d6000602084013e6102be565b606091505b5050905080610302576040517f08c379a00000000000000000000000000000000000000000000000000000000081526004016102f99061118a565b60405180910390fd5b5050565b60008111610349576040517f08c379a0000000000000000000000000000000000000000000000000000000008152600401610340906111ca565b60405180910390fd5b80600160009054906101000a900473ffffffffffffffffffffffffffffffffffffffff1673ffffffffffffffffffffffffffffffffffffffff166370a08231336040518263ffffffff1660e01b81526004016103a59190610fa8565b60206040518083038186803b1580156103bd57600080fd5b505afa1580156103d1573d6000803e3d6000fd5b505050506040513d601f19601f820116820180604052508101906103f59190610d4c565b1015610436576040517f08c379a000000000000000000000000000000000000000000000000000000000815260040161042d906110aa565b60405180910390fd5b600047905060006127108361044b919061124c565b905061046f60405180606001604052806032815260200161174c6032913982610af4565b808210156104b2576040517f08c379a00000000000000000000000000000000000000000000000000000000081526004016104a9906110ca565b60405180910390fd5b6000600160009054906101000a900473ffffffffffffffffffffffffffffffffffffffff1673ffffffffffffffffffffffffffffffffffffffff166323b872dd3330876040518463ffffffff1660e01b815260040161051393929190610fc3565b602060405180830381600087803b15801561052d57600080fd5b505af1158015610541573d6000803e3d6000fd5b505050506040513d601f19601f820116820180604052508101906105659190610cfa565b9050806105a7576040517f08c379a000000000000000000000000000000000000000000000000000000000815260040161059e9061110a565b60405180910390fd5b3373ffffffffffffffffffffffffffffffffffffffff16826040516105cb90610f93565b60006040518083038185875af1925050503d8060008114610608576040519150601f19603f3d011682016040523d82523d6000602084013e61060d565b606091505b50508091505080610653576040517f08c379a000000000000000000000000000000000000000000000000000000000815260040161064a906110ea565b60405180910390fd5b7fa24838acd4af5195a2396965dae5abf54e84e8c19f5698bb966ae64e29994ee533838660405161068693929190611023565b60405180910390a150505050565b600047905090565b6106a4610aec565b73ffffffffffffffffffffffffffffffffffffffff166106c2610724565b73ffffffffffffffffffffffffffffffffffffffff1614610718576040517f08c379a000000000000000000000000000000000000000000000000000000000815260040161070f9061116a565b60405180910390fd5b6107226000610b90565b565b60008060009054906101000a900473ffffffffffffffffffffffffffffffffffffffff16905090565b61271081565b6000803411610797576040517f08c379a000000000000000000000000000000000000000000000000000000000815260040161078e906111aa565b60405180910390fd5b6000612710346107a7919061127d565b90506107cb60405180606001604052806039815260200161177e6039913982610af4565b6000600160009054906101000a900473ffffffffffffffffffffffffffffffffffffffff1673ffffffffffffffffffffffffffffffffffffffff166370a08231306040518263ffffffff1660e01b81526004016108289190610fa8565b60206040518083038186803b15801561084057600080fd5b505afa158015610854573d6000803e3d6000fd5b505050506040513d601f19601f820116820180604052508101906108789190610d4c565b9050818110156108bd576040517f08c379a00000000000000000000000000000000000000000000000000000000081526004016108b49061114a565b60405180910390fd5b6000600160009054906101000a900473ffffffffffffffffffffffffffffffffffffffff1673ffffffffffffffffffffffffffffffffffffffff1663a9059cbb33856040518363ffffffff1660e01b815260040161091c929190610ffa565b602060405180830381600087803b15801561093657600080fd5b505af115801561094a573d6000803e3d6000fd5b505050506040513d601f19601f8201168201806040525081019061096e9190610cfa565b9050806109b0576040517f08c379a00000000000000000000000000000000000000000000000000000000081526004016109a7906111ea565b60405180910390fd5b7f0a37b72bb67eee30e09084cf386f8a17817c57f620c3ab95fb25d6a20356ec773334856040516109e393929190611023565b60405180910390a182935050505090565b6109fc610aec565b73ffffffffffffffffffffffffffffffffffffffff16610a1a610724565b73ffffffffffffffffffffffffffffffffffffffff1614610a70576040517f08c379a0000000000000000000000000000000000000000000000000000000008152600401610a679061116a565b60405180910390fd5b600073ffffffffffffffffffffffffffffffffffffffff168173ffffffffffffffffffffffffffffffffffffffff161415610ae0576040517f08c379a0000000000000000000000000000000000000000000000000000000008152600401610ad79061108a565b60405180910390fd5b610ae981610b90565b50565b600033905090565b610b8c8282604051602401610b0a92919061105a565b6040516020818303038152906040527f9710a9d0000000000000000000000000000000000000000000000000000000007bffffffffffffffffffffffffffffffffffffffffffffffffffffffff19166020820180517bffffffffffffffffffffffffffffffffffffffffffffffffffffffff8381831617835250505050610c54565b5050565b60008060009054906101000a900473ffffffffffffffffffffffffffffffffffffffff169050816000806101000a81548173ffffffffffffffffffffffffffffffffffffffff021916908373ffffffffffffffffffffffffffffffffffffffff1602179055508173ffffffffffffffffffffffffffffffffffffffff168173ffffffffffffffffffffffffffffffffffffffff167f8be0079c531659141344cd1fd0a4f28419497f9722a3daafe3b4186f6b6457e060405160405180910390a35050565b60008151905060006a636f6e736f6c652e6c6f679050602083016000808483855afa5050505050565b600081359050610c8c81611706565b92915050565b600081519050610ca18161171d565b92915050565b600081359050610cb681611734565b92915050565b600081519050610ccb81611734565b92915050565b600060208284031215610ce357600080fd5b6000610cf184828501610c7d565b91505092915050565b600060208284031215610d0c57600080fd5b6000610d1a84828501610c92565b91505092915050565b600060208284031215610d3557600080fd5b6000610d4384828501610ca7565b91505092915050565b600060208284031215610d5e57600080fd5b6000610d6c84828501610cbc565b91505092915050565b610d7e816112d7565b82525050565b6000610d8f82611225565b610d99818561123b565b9350610da981856020860161131f565b610db2816113b0565b840191505092915050565b6000610dca60268361123b565b9150610dd5826113c1565b604082019050919050565b6000610ded60408361123b565b9150610df882611410565b604082019050919050565b6000610e1060378361123b565b9150610e1b8261145f565b604082019050919050565b6000610e3360358361123b565b9150610e3e826114ae565b604082019050919050565b6000610e56602d8361123b565b9150610e61826114fd565b604082019050919050565b6000610e7960198361123b565b9150610e848261154c565b602082019050919050565b6000610e9c603e8361123b565b9150610ea782611575565b604082019050919050565b6000610ebf60208361123b565b9150610eca826115c4565b602082019050919050565b6000610ee2602d8361123b565b9150610eed826115ed565b604082019050919050565b6000610f05600083611230565b9150610f108261163c565b600082019050919050565b6000610f2860228361123b565b9150610f338261163f565b604082019050919050565b6000610f4b60268361123b565b9150610f568261168e565b604082019050919050565b6000610f6e60208361123b565b9150610f79826116dd565b602082019050919050565b610f8d81611315565b82525050565b6000610f9e82610ef8565b9150819050919050565b6000602082019050610fbd6000830184610d75565b92915050565b6000606082019050610fd86000830186610d75565b610fe56020830185610d75565b610ff26040830184610f84565b949350505050565b600060408201905061100f6000830185610d75565b61101c6020830184610f84565b9392505050565b60006060820190506110386000830186610d75565b6110456020830185610f84565b6110526040830184610f84565b949350505050565b600060408201905081810360008301526110748185610d84565b90506110836020830184610f84565b9392505050565b600060208201905081810360008301526110a381610dbd565b9050919050565b600060208201905081810360008301526110c381610de0565b9050919050565b600060208201905081810360008301526110e381610e03565b9050919050565b6000602082019050818103600083015261110381610e26565b9050919050565b6000602082019050818103600083015261112381610e49565b9050919050565b6000602082019050818103600083015261114381610e6c565b9050919050565b6000602082019050818103600083015261116381610e8f565b9050919050565b6000602082019050818103600083015261118381610eb2565b9050919050565b600060208201905081810360008301526111a381610ed5565b9050919050565b600060208201905081810360008301526111c381610f1b565b9050919050565b600060208201905081810360008301526111e381610f3e565b9050919050565b6000602082019050818103600083015261120381610f61565b9050919050565b600060208201905061121f6000830184610f84565b92915050565b600081519050919050565b600081905092915050565b600082825260208201905092915050565b600061125782611315565b915061126283611315565b92508261127257611271611381565b5b828204905092915050565b600061128882611315565b915061129383611315565b9250817fffffffffffffffffffffffffffffffffffffffffffffffffffffffffffffffff04831182151516156112cc576112cb611352565b5b828202905092915050565b60006112e2826112f5565b9050919050565b60008115159050919050565b600073ffffffffffffffffffffffffffffffffffffffff82169050919050565b6000819050919050565b60005b8381101561133d578082015181840152602081019050611322565b8381111561134c576000848401525b50505050565b7f4e487b7100000000000000000000000000000000000000000000000000000000600052601160045260246000fd5b7f4e487b7100000000000000000000000000000000000000000000000000000000600052601260045260246000fd5b6000601f19601f8301169050919050565b7f4f776e61626c653a206e6577206f776e657220697320746865207a65726f206160008201527f6464726573730000000000000000000000000000000000000000000000000000602082015250565b7f596f75722062616c616e6365206973206c6f776572207468616e20746865206160008201527f6d6f756e74206f6620746f6b656e7320796f752077616e7420746f2073656c6c602082015250565b7f5468652076656e646f7220646f65736e2774206861766520656e6f756768206660008201527f756e647320746f2062757920796f757220746f6b656e73000000000000000000602082015250565b7f4661696c656420746f2073656e642045544820746f207468652075736572206960008201527f6e2065786368616e676520666f7220746f6b656e730000000000000000000000602082015250565b7f4661696c656420746f207472616e7366657220746f6b656e732066726f6d207560008201527f73657220746f2076656e646f7200000000000000000000000000000000000000602082015250565b7f4e6f206574686572206c65667420746f20776974686472617700000000000000600082015250565b7f5468652076656e646f7220636f6e747261637420646f65736e2774206861766560008201527f20656e6f75676820746f6b656e7320696e206974732062616c616e63652e0000602082015250565b7f4f776e61626c653a2063616c6c6572206973206e6f7420746865206f776e6572600082015250565b7f4661696c656420746f2073656e6420757365722062616c616e6365206261636b60008201527f20746f20746865206f776e657200000000000000000000000000000000000000602082015250565b50565b7f506c656173652073656e6420736f6d652045544820746f2062757920746f6b6560008201527f6e73000000000000000000000000000000000000000000000000000000000000602082015250565b7f506c65617365207370656369667920616e20616d6f756e74206f6620746f6b6560008201527f6e73203e20300000000000000000000000000000000000000000000000000000602082015250565b7f4661696c656420746f207472616e7366657220746f6b656e20746f2075736572600082015250565b61170f816112d7565b811461171a57600080fd5b50565b611726816112e9565b811461173157600080fd5b50565b61173d81611315565b811461174857600080fd5b5056fe54686520616d6f756e74206f662077656920796f752077696c6c2067657420666f7220796f757220746f6b656e732069733a596f75206172652061626f757420746f206275792074686973206d616e7920746f6b656e732028616d6f756e7420697320696e20776569293aa2646970667358221220faadb0bca72813dd11a8c784a2db70ac63719e6282369256ab738b313dc61b9564736f6c63430008040033",
  "linkReferences": {},
  "deployedLinkReferences": {}
}